:04000000CEEF8CF0C3
:10FC580000001180002C0100B102003500360000C0
:10FC6800B202003500360000B3020035003600024B
:10FC7800003500360000B4000000C0A20002008475
:10FC88000000C1C50000C20D00000000C38D002A9D
:10FC98000000C48D00EE0000C50A000036C8000050
:10FCA800E012001C001000180033002C002500286A
:10FCB80000280027002F003C00000003000300106C
:10FCC800008000780000E112001C00100018002DD0
:10FCD80000280023002800280026002F003B0000F1
:10FCE80000030003001000003A0500002A0000028B
:10FCF8000000008100002B000003000000A20000AB
:10FD080029002C000102000100010002020000038A
:10FD1800030300000103070F1F3F7FFFC9FF83FF95
:10FD28004FFF0CFF000000000000005F000000070C
:10FD3800000700147F147F14242A7F2A1223130833
:10FD4800646236495522500005030000001C224118
:10FD5800000041221C00082A1C2A0808083E08083E
:10FD68000050300000080808080800606000002003
:10FD7800100804023E5149453E00427F400042615E
:10FD88005149462141454B311814127F10274545EA
:10FD980045393C4A49493001710905033649494901
:10FDA80036064949291E003636000000563600003E
:10FDB80000081422411414141414412214080002D7
:10FDC80001510906324979413E7E1111117E7F4960
:10FDD8004949363E414141227F4141221C7F4949E0
:10FDE80049417F090901013E414151327F08080814
:10FDF8007F00417F41002040413F017F081422419C
:10FE08007F404040407F0204027F7F0408107F3E0D
:10FE18004141413E7F090909063E4151215E7F0962
:10FE2800192946464949493101017F01013F4040AE
:10FE3800403F1F2040201F7F2018207F6314081494
:10FE4800630304780403615149454300007F41413D
:10FE5800020408102041417F00000402010204400E
:10FE680040404040000102040020545454787F4828
:10FE78004444383844444420384444487F3854542F
:10FE88005418087E090102081454543C7F080404DD
:10FE98007800447D40002040443D00007F10284405
:10FEA80000417F40007C041804787C0804047838FA
:10FEB800444444387C14141408081414187C7C082E
:10FEC8000404084854545420043F4440203C404013
:10FED800207C1C2040201C3C4030403C44281028FA
:10FEE800440C5050503C4464544C44000836410083
:10FEF80000007F0000004136080008082A1C080896
:10FF08001C2A080809024300020100C03209040043
:10FF18000001020201000524001001042402020568
:10FF280024060001052401000107058103080002D9
:10FF380009040100020A000000070502024000004F
:10FF480007058202400000340343004400430020B8
:10FF5800004D0058004B0020004B00490054002081
:10FF68000020002000200020002000200020002089
:10FF7800002000440065006D006F003403550054F4
:10FF880000530020004D0058004B0020004B004952
:10FF980000540020005600310020002000200020DE
:10FFA800002000200030003200310037002E0012FF
:10FFB80001000202000008D8040A00000101020042
:10FFC800010403090400FCFF0F0000FFFFF0FF001D
:10FFD800FFFF004A61636F62206C696B6573206282
:10FFE80061636F6E0A0048656C6C6F20576F726CA6
:07FFF800640A00256300000C
:020000040001F9
:1000000009D0A80E346E010E03D0A10E346E000E7E
:10001000356E07D03250000AD8B4F3D7010AD8B4ED
:10002000F4D720EE02F03450D9263550DA2232C00F
:10003000DFFF8BD0C00E276E000E286E020E296ED9
:10004000030E2A6EA7EC85F0C00E276E000E286EF8
:10005000030E296E030E2A6EA7EC85F0C00E276EE4
:10006000000E286E050E296E030E2A6EA7EC85F091
:10007000C00E276E000E286E040E296E000E2A6E2A
:10008000A7EC85F020EE03F03450D9263550DA2263
:10009000C70EDE6E0F0EDD6E20EE06F03450D92650
:1000A0003550DA22C60EDE6E0F0EDD6E20EE09F040
:1000B0003450D9263550DA22C90E43D0B60E276EF9
:1000C000000E286E070E296E030E2A6EA7EC85F02F
:1000D000B60E276E000E286E060E296E030E2A6ECF
:1000E000A7EC85F0B60E276E000E286E040E296E62
:1000F000030E2A6EA7EC85F0B60E276E000E286E52
:10010000050E296E000E2A6EA7EC85F020EE03F096
:100110003450D9263550DA226D0EDE6E0F0EDD6EAC
:1001200020EE06F03450D9263550DA226C0EDE6E01
:100130000F0EDD6E20EE09F03450D9263550DA224C
:100140006F0EDE6E0F0EDD6E08D03250000AD8B48E
:1001500071D7010AD8A41200B1D720EE06F03450AE
:10016000D9263550DA22DECF01F0DDCF02F0050EC0
:10017000036E000E046EFAEC8EF084D020EE06F0D2
:100180003450D9263550DA22DECF01F0DDCF02F02F
:10019000040E036E000E046EFAEC8EF020EE03F0F7
:1001A0003450D9263550DA22DECF01F0DDCF02F00F
:1001B000060E036E000E046EFAEC8EF071D020EE87
:1001C00006F03450D9263550DA22DECF01F0DDCFEB
:1001D00002F0040E036E000E046EFAEC8EF020EEB8
:1001E00003F03450D9263550DA22DECF01F0DDCFCE
:1001F00002F0060E036E010E046EFAEC8EF050D083
:1002000020EE06F03450D9263550DA22DECF01F048
:10021000DDCF02F0040E036E010E046EFAEC8EF0D8
:1002200020EE03F03450D9263550DA22DECF01F02B
:10023000DDCF02F0060E036E000E046EFAEC8EF0B7
:100240002FD020EE06F03450D9263550DA22DECFFA
:1002500001F0DDCF02F0040E036E010E046EFAEC25
:100260008EF020EE03F03450D9263550DA22DECF5E
:1002700001F0DDCF02F0060E036E010E046EFAEC03
:100280008EF00ED03350000AD8B478D7010AD8B413
:1002900096D7030AD8B4B4D7010AD8A41200D1D78C
:1002A00020EE06F03450D9263550DA22DECF01F0A8
:1002B000DDCF02F0070E036E000E046EFAEC8EF036
:1002C00020EE06F03450D9263550DA22DECF01F088
:1002D000DDCF02F0060E036E000E046EFAEC8EF017
:1002E00034C001F035C002F07EEC90F004D09F865F
:1002F0000AD0A58E08D03250000AD8B4F8D7010A27
:10030000D8A41200F6D734C001F035C002F03FEC9B
:1003100090F034C0D9FF35C0DAFF000EDF6E20EE5A
:1003200006F03450D9263550DA22DECF0CF0DDCF7E
:100330000DF0000E0E6E010E0F6EA4EC90F020EE8C
:1003400006F03450D9263550DA22DECF01F0DDCF69
:1003500002F0050E036E010E046EFAEC8EF0120030
:10036000080E10240D6E000E11200E6E000E0F6E82
:1003700027EC90F0276E2750136E146A0E0ED8905B
:1003800013361436E82EFBD72750156E166A0C0E5E
:10039000D89015361636E82EFBD72750176E186AF8
:1003A0000A0ED89017361836E82EFBD727501A6E4B
:1003B000196A27501B6E1C6A060ED8901B361C3615
:1003C000E82EFBD727501D6E1E6A1D3A1E3AF00E0E
:1003D0001E161D500F0B1E12F00E1D1627501F6EFD
:1003E000206AD8901F362036D8901F3620362750E6
:1003F000216E226A1F502112205022121D502112FC
:100400001E5022121B5021121C5022121950211270
:100410001A50221217502112185022121550211270
:100420001650221213502110236E14502210246EE5
:1004300027C025F0266A080E10240D6E000E11202C
:100440000E6E010E0F6E27EC90F0136E146AD890AA
:1004500013361436D8901336143613502512145010
:100460002612080E10240D6E000E11200E6E020EC4
:100470000F6E27EC90F0136E146A133A143AF00ED4
:10048000141613500F0B1412F00E131613502512DE
:1004900014502612080E10240D6E000E11200E6E40
:1004A000030E0F6E27EC90F0136E146A060ED890B0
:1004B00013361436E82EFBD713502512145026128B
:1004C000080E10240D6E000E11200E6E040E0F6E1D
:1004D00027EC90F0136E1350156E146A1450251209
:1004E00015502612080E10240D6E000E11200E6EEF
:1004F000050E0F6E27EC90F0136E146A0A0ED8905A
:1005000013361436E82EFBD713502512145026123A
:10051000080E10240D6E000E11200E6E060E0F6ECA
:1005200027EC90F0136E146A0C0ED8901336143624
:10053000E82EFBD71350251214502612080E102453
:100540000D6E000E11200E6E070E0F6E27EC90F050
:10055000136E146A0E0ED89013361436E82EFBD79D
:1005600013502512145026122550231841E126500D
:100570002418D8A412002ED020EE02F01050D92654
:100580001150DA22DECF01F0DDCF02F012C003F00D
:1005900045EC91F01200121E20EE02F01050D92608
:1005A0001150DA22DECF01F0DDCF02F012C003F0ED
:1005B00045EC91F0120020EE04F01050D9261150B5
:1005C000DA22DECF01F0DDCF02F012C003F045ECFD
:1005D00091F012002750000AD8B41200010AD8B4D2
:1005E000CBD7030AD8B4D7D7010AD8A41200E3D7CF
:1005F0001200050E3B6EAED020EE02F03750D92629
:100600003850DA22DECF0CF0DDCF0DF039C00EF01D
:100610000F0E0F6EA4EC90F020EE04F03750D926A8
:100620003850DA22DECF0CF0DDCF0DF039C00EF0FD
:10063000000E0F6EA4EC90F09AD037C030F038C0A6
:1006400031F039C032F0030E336E20EC8FF03B6E88
:100650003B50D8A4120020EE02F03750D926385073
:10066000DA22DECF0CF0DDCF0DF039C00EF0000E37
:100670000F6EA4EC90F020EE04F03750D9263850DD
:10068000DA22DECF0CF0DDCF0DF039C00EF0000E17
:100690000F6EA4EC90F06BD037C030F038C031F062
:1006A00039C032F0030E336E20EC8FF03B6E3B50BE
:1006B000D8A4120020EE02F03750D9263850DA22A2
:1006C000DECF0CF0DDCF0DF039C00EF00F0E0F6E47
:1006D000A4EC90F020EE04F03750D9263850DA22FE
:1006E000DECF0CF0DDCF0DF039C00EF00F0E0F6E27
:1006F000A4EC90F03CD037C030F038C031F039C0B5
:1007000032F0030E336E20EC8FF03B6E3B50D8A4DA
:10071000120020EE02F03750D9263850DA22DECF10
:100720000CF0DDCF0DF039C00EF0000E0F6EA4EC12
:1007300090F020EE04F03750D9263850DA22DECF80
:100740000CF0DDCF0DF039C00EF0000E0F6EA4ECF2
:1007500090F00DD03A50000AD8B44ED7010AD8B460
:100760006CD7030AD8B498D7010AD8B4C4D7080EF6
:100770003724106E000E3820116E3950040DF3CF5F
:1007800012F03AC013F0C0EC8FF0080E3724106E50
:10079000000E3820116E3950040DF328126E3AC045
:1007A00013F0C0EC8FF0080E3724106E000E3820C6
:1007B000116E3950040DF350020F126E3AC013F04F
:1007C000C0EC8FF0080E3724106E000E3820116E2A
:1007D0003950040DF350030F126E3AC013F0C0EC01
:1007E0008FF01200050E406E6BD020EE02F03B50F1
:1007F000D9263C50DA22DECF3EF0DDCF3FF03EC0BE
:10080000D9FF3FC0DAFFFF0E59D03BC037F03CC0E4
:1008100038F0010E396E87EC8FF0406E4050D8A44E
:10082000120020EE02F03B50D9263C50DA22DECFF7
:100830003EF0DDCF3FF03EC0D9FF3FC0DAFF000EF3
:10084000DF6E20EE04F02DD03BC037F03CC038F016
:10085000020E396E87EC8FF0406E4050D8A4120023
:1008600020EE02F03B50D9263C50DA22DECF3EF09B
:10087000DDCF3FF03EC0D9FF3FC0DAFFFF0EDF6E95
:1008800020EE04F0B4D73BC037F03CC038F0000E87
:10089000396E87EC8FF0406E4050D8A4120020EEE5
:1008A00002F03B50D9263C50DA22DECF3EF0DDCFBD
:1008B0003FF03EC0D9FF3FC0DAFF000EDF6E0DD023
:1008C0003D50000AD8B491D7010AD8B49ED7030A84
:1008D000D8B4BAD7010AD8B4D6D7080E3B24106EC4
:1008E000000E3C20116E000E126E3DC013F0C0ECE5
:1008F0008FF0080E3B24106E000E3C20116E010E8E
:10090000126E3DC013F0C0EC8FF0080E3B24106E49
:10091000000E3C20116E020E126E3DC013F0C0ECB2
:100920008FF0080E3B24106E000E3C20116E030E5B
:10093000126E3DC013F0C0EC8FF0080E3B24106E19
:10094000000E3C20116E040E126E3DC013F0C0EC80
:100950008FF0080E3B24106E000E3C20116E050E29
:10096000126E3DC013F0C0EC8FF0080E3B24106EE9
:10097000000E3C20116E060E126E3DC013F0C0EC4E
:100980008FF0080E3B24106E000E3C20116E070EF7
:10099000126E3DC013F0C0EC8FF012000001F9514F
:1009A000D8B41200E6C027F0E7C028F0E8C029F06C
:1009B000E9C02AF09151D8B404D059C026F00F0EE6
:1009C000596E000E2C6EB6D02C50020D000EF32482
:1009D000D96E010EF420DA6EDECFF6F0DDCFF7F03F
:1009E000000E2B6E130E2B6401D09BD02C50140DD7
:1009F000400E246E040E256EF3502426F45025225A
:100A00002B50010DF3502424D96EF4502520DA6EBA
:100A1000DFAE81D02C50140D400E246E040E256ED6
:100A2000F3502426F45025222B50010DF35024249A
:100A3000D96EF4502520DA6E7F0EDF162C50140D7F
:100A4000400E246E040E256EF3502426F450252209
:100A50002B50010DF3502424D96EF4502520DA6E6A
:100A6000DF50D8B442D089C00AF08AC00BF027C04A
:100A70000CF028C00DF029C00EF02AC00FF0EEC017
:100A800010F0EFC011F0F0C012F0F1C013F0D3EC91
:100A90008EF02C50140D400E246E040E256EF35073
:100AA0002426F45025222B50010DF3502424D96E16
:100AB000F4502520DA6EDF503CEC89F006C013F0CC
:100AC00007C014F027C015F028C016F029C017F091
:100AD0002AC018F0EEC019F0EFC01AF0F0C01BF0F9
:100AE000F1C01CF021EC8CF016D0000E0B6E000E45
:100AF0000A6E27C00CF028C00DF029C00EF02AC0E5
:100B00000FF0EEC010F0EFC011F0F0C012F0F1C025
:100B100013F0D3EC8EF0060E2726000E28222B2A87
:100B200061D7080E2926000E2A22000E286E060E16
:100B3000276E2C2A2C50595CD8B046D70001915111
:100B4000D8B41200000E916F26C059F0120027C0D1
:100B5000D9FF28C0DAFFDECF2CF0DDCF2DF0050E57
:100B60002B6E9ED020EE02F02750D9262850DA2294
:100B7000DECF01F0DDCF02F029C003F0010E046EDC
:100B8000FAEC8EF09AD02CC010F02DC011F0010EAE
:100B9000126E29C013F06CEC8DF02B6E2B50D8A484
:100BA000120020EE02F02750D9262850DA22DECF9C
:100BB00001F0DDCF02F029C003F0000E046EFAEC64
:100BC0008EF020EE04F02750D9262850DA22DECF0E
:100BD00001F0DDCF02F029C003F0000E046EFAEC44
:100BE0008EF06BD02CC010F02DC011F0020E126EE2
:100BF00029C013F06CEC8DF02B6E2B50D8A4120092
:100C000020EE02F02750D9262850DA22DECF01F05C
:100C1000DDCF02F029C003F0010E046EFAEC8EF075
:100C200020EE04F02750D9262850DA22DECF01F03A
:100C3000DDCF02F029C003F0010E046EFAEC8EF055
:100C40003CD02CC010F02DC011F0000E126E29C047
:100C500013F06CEC8DF02B6E2B50D8A4120020EE0C
:100C600002F02750D9262850DA22DECF01F0DDCF5E
:100C700002F029C003F0000E046EFAEC8EF020EEB4
:100C800004F02750D9262850DA22DECF01F0DDCF3C
:100C900002F029C003F0000E046EFAEC8EF00DD0C5
:100CA0002A50000AD8B45ED7010AD8B46CD7030A18
:100CB000D8B498D7010AD8B4C4D7080E2724106E28
:100CC000000E2820116E29C012F02AC013F0C0ECCB
:100CD0008FF01200435021EC8BF041C0D9FF42C08D
:100CE000DAFF01C0DEFF02C0DDFF435062EC8BF093
:100CF00020EE06F04150D9264250DA2201C0DEFF34
:100D000002C0DDFF435062EC8BF020EE04F0415056
:100D1000D9264250DA2201C0DEFF02C0DDFF435077
:100D2000E0EC8AF020EE02F04150D9264250DA225F
:100D300001C0DEFF02C0DDFF20EE04F04150D926E5
:100D40004250DA22DECF44F0DDCF45F044C0D9FF77
:100D500045C0DAFF000EDF6E20EE02F04150D926CA
:100D60004250DA22DECF44F0DDCF45F044C0D9FF57
:100D700045C0DAFFFF0EDF6E41C03BF042C03CF0E1
:100D8000000E3D6EF2EC83F0000E466E070E4664D8
:100D90002DD046D041C027F042C028F046C029F0EF
:100DA000030E2A6EA7EC85F039D041C027F042C06F
:100DB00028F046C029F0020E2A6EA7EC85F02ED04E
:100DC00041C027F042C028F046C029F0010E2A6E2B
:100DD000A7EC85F023D041C027F042C028F046C0E0
:100DE00029F0000E2A6EA7EC85F018D041C0D9FF7B
:100DF00042C0DAFFDECF0DF0DDCF0EF046C00FF0BF
:100E000027EC90F0000AD8B4C5D7010AD8B4D8D7D7
:100E1000030AD8B4CAD7010AD8B4DDD7462AB6D750
:100E200041C010F042C011F0000E126EB0EC81F023
:100E30001200146E8AD0E3EC8BF01200A9EC8EF055
:100E4000120097EC8CF012008CEC89F012007FEC11
:100E50008EF01200C2EC90F0120014C011F07F0E60
:100E600011165950140D400E126E040E136EF350ED
:100E70001226F45013225A50010DF3501224D96E49
:100E8000F4501320DA6EDF507F0B1118D8B424D041
:100E9000010E0001F96F5950140D400E116E040E31
:100EA000126EF3501126F45012225A50010DF350D5
:100EB0001124D96EF4501220DA6E14508009DF6EBE
:100EC0005950020D000EF324D96E010EF420DA6E93
:100ED000F6C0DEFFF7C0DDFF7FEC8EF00009D8B46E
:100EE000120014C011F07F0E11165950140D400E4F
:100EF000126E040E136EF3501226F45013225A5041
:100F0000010DF3501224D96EF4501320DA6EDF5025
:100F10007F0B1118D8B41200010E0001F96F59505F
:100F2000140D400E116E040E126EF3501126F45083
:100F300012225A50010DF3501124D96EF450122090
:100F4000DA6E14508009DF6E12001450070AD8B40C
:100F50007ED70F0AD8B472D7010AD8B475D7030A5E
:100F6000D8B469D7060AD8B46CD7010AD8B463D705
:100F70002D0AD8B472D7030AD8B46CD76ED729EC2F
:100F80008EF0000E396E000E386E39507AE1590E2F
:100F9000385CD8B076D0D8903834F66E3934F76EE5
:100FA000590EF626FC0EF722F86A000EF822090008
:100FB000800EF5180900F510D8A41DD039501BE19A
:100FC000580E385CD8B017D0384A392AD8903834FF
:100FD000F66E3934F76E590EF626FC0EF722F86AD3
:100FE000000EF8220900F5CF01F00A00F5CF02F05B
:100FF00054EC8EF041D0D8903834F66E3934F76E18
:10100000590EF626FC0EF722F86A000EF8220900A7
:10101000000EF55E0900010EF55AD8A01BD0000E97
:10102000046ED8903834F66E3934F76E590EF626C1
:10103000FC0EF722F86A000EF8220900F5CF36F010
:101040000900F5CF37F037C036F0376A3650D0ECAC
:1010500090F012D0010E046ED8903834F66E393408
:10106000F76E590EF626FC0EF722F86A000EF822EB
:101070000800F550D0EC90F0384A392A395001E197
:1010800086D7000E026E640E016E54EC8EF0000ED8
:10109000046E290ED0EC90F0010ED3EC89F0000E16
:1010A000026E640E016E54EC8EF0000E0B6E000E9C
:1010B0000A6E45EC8FF01200010E0001F86F000E71
:1010C0007A6F000E7B6F000E7C6FC70E416E010EB3
:1010D000426E000E436E6AEC86F0BD0E416E010E4C
:1010E000426E010E436E6AEC86F0C00E416E000E39
:1010F000426E020E436E6AEC86F0B60E416E000E32
:10110000426E030E436E6AEC86F0B30E416E010E22
:10111000426E040E436E6AEC86F0CA0E416E000EFB
:10112000426E050E436E6AEC86F0AC0E416E000E08
:10113000426E060E436E6AEC86F0CA0E276E000EF3
:10114000286E050E296E000E2A6EA7EC85F0BD0EE6
:10115000376E010E386E000E396E000E3A6EF9ECE5
:1011600082F0CA0E276E000E286E060E296E030E40
:101170002A6EA7EC85F0AC0E3B6E000E3C6E030EA3
:101180003D6EF2EC83F0AC0E106E000E116E040E8C
:10119000126E000E136EE7EC88F0CA0E106E000E91
:1011A000116E060E126E010E136EE7EC88F0000E43
:1011B0009E6E000EA16E000EA46E9B8E9B8C000E88
:1011C000026E640E016E54EC8EF0D08E1200080E8A
:1011D00010240D6E000E11200E6E12C00FF027ECC1
:1011E00090F0146E3BD0010E131620EE02F010505A
:1011F000D9261150DA22DECF01F0DDCF02F012C085
:1012000003F013C004F0FAEC8EF01200010E131676
:10121000010E131A20EE02F01050D9261150DA22D6
:10122000DECF01F0DDCF02F012C003F013C004F0F6
:10123000FAEC8EF01200010E131620EE04F010509E
:10124000D9261150DA22DECF01F0DDCF02F012C034
:1012500003F013C004F0FAEC8EF012001450000AF0
:10126000D8B41200010AD8B4BED7030AD8B4CED776
:10127000010AD8A41200DFD7106E200E105E1050A5
:10128000050DF3CF0AF0F4CF0BF02C0E0A240C6EF0
:10129000FD0E0B200D6E000E116E040E116401D0B8
:1012A00036D0000E126E060E126401D02CD00CC087
:1012B00001F00DC002F012C003F06AEC90F00009DA
:1012C000D8A405D089C00EF08AC00FF004D0F6C0B3
:1012D0000EF0F7C00FF012500A0D400E086E020E0D
:1012E000096EF3500826F45009221150020DF350F4
:1012F0000824D96EF4500920DA6E0EC0DEFF0FC04C
:10130000DDFF122AD0D70C4A0D2A112AC6D7400E6B
:10131000066E020E076E1200000E0F6EFA0E00012E
:10132000F225016EFF0EF321026E000E046E060E12
:10133000036E5DEC8AF00150106E10C001F0026A7D
:10134000000E046E040E036E5DEC8AF001500E6E0A
:10135000000E0F6E05D00FEC90F07FEC8EF00F2A90
:101360000E50040DF31EF41EF34AF42A1050096EB9
:101370000A6AF3500926F4500A22091E0A1E094A75
:101380000A2A040E0926000E0A220F500B6E0C6A60
:1013900009500B5C0C50800A0D6E0A50800A0D58E3
:1013A000D8B01200D8D7066E000E076E000E046E7D
:1013B000360ED0EC90F00650030B076E2CD0010EC9
:1013C000046EC80ED0EC90F0800E0001FE6F800E0F
:1013D000FD6F1200010E046EA80ED0EC90F0800E8E
:1013E0000001FE6F800EFD6F1200010E046E080EEC
:1013F000D0EC90F0800E0001FE6F800EFD6F1200A9
:10140000010E046E680ED0EC90F0800E0001FE6FAD
:10141000800EFD6F12000750000AD8B4D0D7010A21
:10142000D8B4D8D7030AD8B4E0D7010AD8A4120098
:10143000E7D70550010D1B0EF324F66EFD0EF420C8
:10144000F76EF86A000EF8220800F5CF0BF0000ED8
:101450000A6E03D00350045E0A2A0350045CD8B01D
:10146000F9D705500402F350046E0A5004260B50BD
:10147000061604C007F00BC008F0072A02D0D89067
:101480000836072EFCD70850FF0A096E01C0D9FFA5
:1014900002C0DAFF0950DF1604C007F006C008F0EA
:1014A000072A02D0D8900836072EFCD701C0D9FFF2
:1014B00002C0DAFF0850DF121200000E066E04AE02
:1014C00006D0036C041ED8B0042A010E066E02AECC
:1014D00006D0016C021ED8B0022A010E061A000EB8
:1014E000086E000E076E03500410D8B41CD0010E15
:1014F000056E04D0D89003360436052A04AEFAD718
:10150000D890073608360350015C04500258D8A022
:1015100005D00350015E0450025A0780D89004326F
:101520000332052EEDD70650D8B404D0076C081E40
:10153000D8B0082A07C001F008C002F01200096EF6
:10154000020E0626020E0826030E0926030E0726A3
:10155000000E046E2A0ED0EC90F0010E046E000E08
:10156000D0EC90F0010E046E0950D0EC90F0010E1A
:10157000046E000ED0EC90F0010E046E0750D0EC1B
:1015800090F0000E046E2B0ED0EC90F0010E046E65
:10159000000ED0EC90F0010E046E0650D0EC90F0EE
:1015A000010E046E000ED0EC90F0010E046E085097
:1015B000D0EC90F0000E046E2C0ED0EC90F01200E7
:1015C000036E28D0920E016E0F0E026E1200930E63
:1015D000016E0F0E026E1200940E016E0F0E026E5F
:1015E0001200950E016E0F0E026E1200960E016E25
:1015F0000F0E026E1200970E016E0F0E026E120099
:10160000980E016E0F0E026E1200000E016E000E9B
:10161000026E12000350000AD8B4D4D7010AD8B41D
:10162000D6D7030AD8B4D8D7010AD8B4DAD7070A6C
:10163000D8B4DCD7010AD8B4DED7030AD8B4E0D7CF
:10164000E4D7036E28D0D90E016EFF0E026E120091
:10165000D70E016EFF0E026E1200D50E016EFF0E48
:10166000026E1200D30E016EFF0E026E1200D10E3A
:10167000016EFF0E026E1200CF0E016EFF0E026EA3
:101680001200CD0E016EFF0E026E1200000E016EF2
:10169000000E026E12000350000AD8B4D4D7010A1B
:1016A000D8B4D6D7030AD8B4D8D7010AD8B4DAD771
:1016B000070AD8B4DCD7010AD8B4DED7030AD8B4F5
:1016C000E0D7E4D7036E28D0800E016E0F0E026EB5
:1016D0001200810E016E0F0E026E1200820E016E5C
:1016E0000F0E026E1200830E016E0F0E026E1200BC
:1016F000840E016E0F0E026E1200850E016E0F0E2B
:10170000026E1200860E016E0F0E026E1200000EA7
:10171000016E000E026E12000350000AD8B4D4D736
:10172000010AD8B4D6D7030AD8B4D8D7010AD8B496
:10173000DAD7070AD8B4DCD7010AD8B4DED7030A4F
:10174000D8B4E0D7E4D7180E1B6E000E1C6E2CD058
:10175000250E1D18D8B404D01D502DEC91F024D0C6
:10176000000E1A6E0ED01BC0D9FF1CC0DAFFDF506E
:101770001D6E020E1B26000E1C221D502DEC91F03A
:1017800013D016C0F6FF17C0F7FF164A172A000E2F
:10179000F86E0800F5CF1DF01D50000AD8B41200F5
:1017A000630AD8B4E0D7E9D716C0F6FF17C0F7FF31
:1017B000164A172A000EF86E0800F5CF1DF01D50CE
:1017C000D8B41200C5D72DD05950140D400E016E5B
:1017D000040E026EF3500126F45002225A50010DFD
:1017E000F3500124D96EF4500220DA6EDF50D8B4E1
:1017F00017D0010E0001F96F5950140D400E016E03
:10180000040E026EF3500126F45002225A50010DCC
:10181000F3500124D96EF4500220DA6E800EDF6E90
:101820005A2A130E5A64D0D7000E5A6E592A080E3F
:101830000001F427000EF523000EF36F060EF26F81
:101840001200000E236E15501924216E17501B2410
:10185000226E1BC001F01CC002F019C003F01AC0B8
:1018600004F091EC90F001C01FF002C020F017C00E
:1018700006F02104076E2204086E15509FEC8AF0D2
:10188000000E236E0FD02350020DF3501324D96E97
:10189000F4501420DA6EDECF06F0DDCF07F019EC3D
:1018A00091F0232A23501D6E1E6A1F501D5C20508C
:1018B0001E58D8B01200E7D701C0F6FF02C0F7FFEC
:1018C000000EF86E0F0EF76403D00800F55005D037
:1018D000F6CFE9FFF7CFEAFFEF50096E0550010D93
:1018E0001B0EF324F66EFD0EF420F76EF86A000E60
:1018F000F8220800F5CF07F0000E086E03D0035061
:10190000045E082A0350045CD8B0F9D705500402DD
:10191000F350046E085004260428066E02D0D890B6
:101920000932062EFCD70750091609501200000E86
:101930005A6E000E596E000E046E0E0E046401D035
:1019400021D0000E036E130E036401D019D0010ED6
:101950000001F96F0450140D400E016E040E026E6A
:10196000F3500126F45002220350010DF3500124DC
:10197000D96EF4500220DA6E800EDF6E032AE3D7B0
:10198000042ADBD7010E0001916F000EF36F060EE3
:10199000F26F000EF56F060EF46F1200D40EF66EA5
:1019A000210EF76E010EF86E00EEE6F010EE19F063
:1019B0000900F5CFEEFFE550E150FAE104EE40F00A
:1019C00011EE2CF0EE6AE550E150FCE1E250FAE154
:1019D00002EE00F0C60EEE6AE806FDE101EE00F050
:1019E000D90EEE6AE806FDE100EE60F0860EEE6AC2
:1019F000E806FDE100EE47F0190EEE6AE806FDE1AB
:101A0000000124EF91F026D0C4C0D9FFC5C0DAFF91
:101A10000001DF9403C0C9FFC7A0FED7C9CF03F000
:101A2000C4C0D9FFC5C0DAFF0001DF841200BAC00C
:101A3000D9FFBBC0DAFF0001DF9E03C06FFF6DA0BE
:101A4000FED76FCF03F0BAC0D9FFBBC0DAFF0001E9
:101A5000DF8E120020EE02F00150D9260250DA2269
:101A6000DF50000AD8B4D0D7010AD8A41200DFD7BB
:101A7000000E5A6E000E596E000E036E130E0364B4
:101A800001D01200000E046E0E0E046401D022D0AC
:101A90000450140D400E016E040E026EF350012628
:101AA000F45002220350010DF3500124D96EF4507A
:101AB0000220DA6E000EDF6E0450020D000EF324D9
:101AC000D96E010EF420DA6EFF0EDE6EFF0EDD6EB3
:101AD000042ADAD7032AD2D70B0EF66EFD0EF76E64
:101AE000000EF86E20EE16F00F0E0900F5CFDEFFA7
:101AF000E806FBE210C00DF011C00EF013C00FF0AD
:101B000027EC90F0266E040E126017D0040E2660AB
:101B100014D01250040D160E146E000E156EF350F4
:101B20001426F45015222650010DF3501424D96EBA
:101B3000F4501520DA6EDF501200050E120020EE70
:101B400006F01050D9261150DA22DECF01F0DDCF99
:101B500002F0050E036E000E046EFAEC8EF020EE1D
:101B600006F01050D9261150DA22DECF0CF0DDCF6E
:101B70000DF0000E0E6E000E0F6EA4EC90F020EE35
:101B800006F01050D9261150DA22DECF01F0DDCF59
:101B900002F0050E036E010E046EFAEC8EF01200D8
:101BA000050E2D6E27C0D9FF28C0DAFFDECF2EF03C
:101BB000DDCF2FF02950020DF3CF2BF02950020D6D
:101BC000F3282C6E2EC010F02FC011F02AC012F096
:101BD0002BC013F06CEC8DF02D6E2D50D8A40BD0D3
:101BE0002EC010F02FC011F02AC012F02CC013F03C
:101BF0006CEC8DF02D6E2D501200010EA4EC8FF0C8
:101C00000009D8B41ED0FB0E166EFF0E176E000E24
:101C1000196E230E186EA3EC8BF0000E026E000EF0
:101C2000016E4CEC91F0EE0E166EFF0E176EA3ECEB
:101C30008BF0DB0E166EFF0E176EA3EC8BF0CEEC66
:101C400084F0F7EC90F00009D8B4120036EC91F073
:101C50001200CA0E276E000E286E070E296E030EA4
:101C60002A6EA7EC85F0CA0E276E000E286E060EAF
:101C7000296E030E2A6EA7EC85F0F6EC8FF0C00EED
:101C80002E6EC60E2F6E2D0E306E000E316E010EB2
:101C9000326E010E336E00EC80F0A10E106E000E5D
:101CA000116E9FEC8DF0120019D0000E036E000E25
:101CB000046E000E056E000E066E065005100EE155
:101CC000B00E035C040E0458D8B008D000F0010E2A
:101CD0000326000E042205220622EFD70106D8A013
:101CE00002060128E2E10228D8A4DFD7080E036E1D
:101CF000800E046E000E056E000E066E12005A2A4B
:101D0000060E0001F227000EF323060EF225056EE3
:101D1000000EF321066E06BE07D0065003E1800ECA
:101D2000055CD8B0E3EC8BF0080E0001F425056EDD
:101D3000000EF521066E06BE0AD0065004E1800EA4
:101D4000055CD8A004D097EC8CF0010E1200000EB8
:101D500012005A50D8B407D00001FA0EF227FF0E35
:101D6000F3235A061DD05950D8B40DD0000E0001EF
:101D7000F36F720EF26FF80EF427FF0EF523130EB9
:101D80005A6E59060DD0000E0001F36F060EF26F69
:101D9000000EF56F060EF46F000E5A6E000E596EAF
:101DA0000FEC90F01200000E166E000E176E0EC0B3
:101DB00006F00C501024146E1404076E0E501224FA
:101DC000156E1504086E0C509FEC8AF012C017F0C7
:101DD0001750D8B4120010C016F01650D8B408D05E
:101DE0000AC006F00BC007F019EC91F01606F5D703
:101DF0001706EED7010E041603C005F0010E066E9D
:101E0000052A02D0D8900636052EFCD70650FF0AC8
:101E1000076E01C0D9FF02C0DAFF0750DF1603C00A
:101E200005F004C006F0052A02D0D8900636052E2B
:101E3000FCD701C0D9FF02C0DAFF0650DF12120042
:101E4000050E366E3250020DF3CF34F03250020DD3
:101E5000F328356E30C027F031C028F034C029F0A7
:101E600033C02AF0D0EC8DF0366E3650D8A40BD0AB
:101E700030C027F031C028F035C029F033C02AF037
:101E8000D0EC8DF0366E36501200000E0C6E000E47
:101E90000D6E000E066E0001FE05076EFD05086E54
:101EA000000E9FEC8AF0FDC00DF00D50D8B412006A
:101EB000FEC00CF00C50D8B408D00AC006F00BC01D
:101EC00007F019EC91F00C06F5D70D06EED716D0F9
:101ED000000E036E000E046E000E056E000E066E00
:101EE0000350041005100610D8A408D000F0010E0D
:101EF0000326000E042205220622F2D70106D8A0EE
:101F000002060128E5E10228D8B41200E1D7050E47
:101F10003A6E37C030F038C031F0000E326E39C042
:101F200033F020EC8FF03A6E3A50D8A40BD037C083
:101F300030F038C031F0010E326E39C033F020EC91
:101F40008FF03A6E3A501200086E86500F0B076EF3
:101F50000001F851D8A402D0000E1200000EF86F54
:101F600008500718D8B40AD0F00E8616085086120A
:101F7000000E026E0A0E016E67EC8FF0010E120069
:101F8000030E12640ED0010E10240C6E000E1120F0
:101F90000D6E1250FC0F0E6E13C00FF0B3EC90F0EC
:101FA000120010C00CF011C00DF012C00EF013C0E2
:101FB0000FF0B3EC90F01200086E86500F0B076E16
:101FC0000001F851D8B4FCD7000EF86F085007187C
:101FD000D8B40AD0F00E861608508612000E026E93
:101FE0000A0E016E67EC8FF0010E12000EEC91F0FC
:101FF000000E026E800E016E54EC8EF003EC91F038
:10200000000E026E800E016E54EC8EF00EEC91F01C
:10201000000E026E800E016E54EC8EF01200010E66
:102020000001F96F5950140D400E016E040E026E3E
:10203000F3500126F45002225A50010DF3500124AE
:10204000D96EF4500220DA6E800EDF6E1200030E9D
:102050000F640CD0010E0D240A6E000E0E200B6EC4
:102060000F50FC0F0C6EDDEC90F012000DC00AF06A
:102070000EC00BF00FC00CF0DDEC90F0120020EE63
:1020800002F00150D9260250DA22DF50D8A407D03E
:10209000C4C0D9FFC5C0DAFF0001DF841200BAC096
:1020A000D9FFBBC0DAFF0001DF8E1200010EDCECAD
:1020B0008FF00009D8B406D0F6EC8FF0BFEC87F0B3
:1020C00038EC8DF0F7EC90F00009D8B4120036EC43
:1020D00091F0120001C0F6FF02C0F7FF000EF86E8B
:1020E0000800F5CF05F00328046E02D0D890053221
:1020F000042EFCD7010E05160550120004D09D9643
:102100001200A39E120020EE02F00150D9260250C8
:10211000DA22DF50000AD8B4F2D7010AD8A412009C
:10212000F0D701500302F3CF05F0F4CF06F00150D1
:102130000402F350062602500302F350062605C09F
:1021400001F006C002F012000CC001F00DC002F058
:10215000020E036E0EC004F0040E056E0FC006F0F2
:1021600019EC8AF012000CC001F00DC002F0040E50
:10217000036E0EC004F0020E056E0FC006F019ECDF
:102180008AF01200000E0001F36F060EF26F000ECF
:10219000F56F060EF46F000E5A6E000E596E1200A7
:1021A000056E04503EEC91F0A10E016E000E026E21
:1021B00005C003F003EC8DF012000AC001F00BC063
:1021C00002F0040E036E0CC004F0020E056E5CEC0F
:1021D0008CF01200060006008000070005000700D2
:0D21E00006000600FFFF0101416130808014
:1021EE00010E0001F86F7A517B117C11D8B402D028
:1021FE00010E1200000E1200CA0E106E000E116EAD
:10220E00060E126E010E136EE7EC88F01200CA0E67
:10221E00106E000E116E060E126E000E136EE7ECAF
:10222E0088F01200010E046E0750D0EC90F0010EF3
:10223E00046E0650D0EC90F012005CEC88F051EC7D
:10224E0091F056EC90F0FDEC8DF0FDD7156E15501B
:10225E0019EC87F09EA8FED715C0AEFF1200000E37
:10226E0000017A6F000E7B6F000E7C6F1200016E04
:10227E0001B002D0859E01D0858E120001C0D9FF1B
:10228E0002C0DAFF03C0DFFF120001C089F002C0F6
:0A229E008AF01200AD8AAC8E120027
:06FFF800AAF705FFF8F175
:00000001FF
